:020000040800F2
:10000000204D002059020008A7260008A923000857
:10001000A5260008BD080008052D00080000000006
:100020000000000000000000000000009D0100082A
:10003000390A000800000000F1010008B527000897
:1000400073020008730200087302000873020008BC
:1000500073020008730200087302000873020008AC
:10006000730200087302000873020008730200089C
:10007000730200087302000873020008730200088C
:10008000890900087302000873020008CD080008FF
:10009000C108000873020008730200087302000818
:1000A000730200087302000873020008730200085C
:1000B000730200087302000873020008730200084C
:1000C000730200087302000873020008730200083C
:1000D0007302000873020008292C0008730200084C
:1000E000730200087302000873020008730200081C
:1000F000730200087302000873020008730200080C
:1001000073020008730200087302000873020008FB
:1001100073020008730200087302000873020008EB
:1001200073020008730200087302000873020008DB
:10013000730200087302000873020008E508000853
:10014000D90800087302000873020008730200084F
:10015000730200087302000873020008B12C000843
:10016000730200087302000873020008730200089B
:100170007302000873020008730200080000000008
:100180007302000873020008DFF80CD000F058FB7F
:100190000048004719400008204D00202B4B1968EB
:1001A0000868B0E8F04F80F30988BFF36F8F4FF015
:1001B000000080F3118870470000000006480068C6
:1001C000006880F3088862B661B6BFF34F8FBFF353
:1001D0006F8F00DF00BF00BF08ED00E0DFF80C000C
:1001E000016841F470010160704700BF88ED00E0D4
:1001F000EFF30980BFF36F8F144B1A681EF0100FD6
:1002000008BF20ED108A20E9F04F106008B44FF0CD
:10021000500080F31188BFF34F8FBFF36F8F05F04D
:10022000D9F84FF0000080F3118808BC19680868FD
:10023000B0E8F04F1EF0100F08BFB0EC108A80F34A
:100240000988BFF36F8F704700BF00BF44000020D4
:10025000EFF30580704700000648804706480047D6
:10026000FEE7FEE7FEE7FEE7FEE7FEE7FEE7FEE766
:10027000FEE7FEE769280008890100082DE9F05F24
:100280000546002092469B46884606468146402405
:100290001BE0284641464746224600F01BFA5346DB
:1002A0005A46C01A914110D311461846224600F012
:1002B00002FA2D1A67EB01084F4622460120002161
:1002C00000F0F9F917EB00094E41201EA4F10104DA
:1002D000DFDC484631462A464346BDE8F09F40EA07
:1002E00001039B0703D009E008C9121F08C0042AB4
:1002F000FAD203E011F8013B00F8013B521EF9D29B
:100300007047D2B201E000F8012B491EFBD27047C2
:100310000022F6E710B513460A4604461946FFF7D1
:10032000F0FF204610BD2DE9FE4F804681EA030014
:10033000C00F0C46009021F0004123F00045B8EBBF
:100340000200A94105D24046214690461C460B4674
:10035000024623F00040104347D0270DC7F30A00A0
:10036000C3F30A510290401A019040286BDAC3F39C
:10037000130040F4801B0098924620B10023D2EB7A
:10038000030A63EB0B0B01985946C0F1400250463B
:1003900000F091F906460D4650465946019A00F084
:1003A000A9F910EB08006141002487EA115284EAA0
:1003B000E7731A4340D0009A62B3019A012A4FEAC8
:1003C000075215DC001B61EB02014FF0004202EA0C
:1003D0000752CDE90042001C41F5801132462B4600
:1003E00000F0E0F903B0BDE8F08F40462146F9E7A0
:1003F000001B61EB0201001C41F5801300185B41FA
:100400002018A2F5001747EB030140EAD570B61992
:100410006D4111E06D084FEA360645EAC0754FEAB6
:100420000752001B61EB0201001C41F580114908D5
:100430004FEA30000019514132462B4603B0BDE867
:10044000F04F00F0A0B90098012240000023D0EB4B
:10045000020263EBE073009821464FEAE074B8EBC8
:10046000000061EB0401E9E783F000435BE781F002
:10047000004158E72DE9FE4F81EA030404F00044EF
:1004800021F0004100944FF0000B23F0004350EAAC
:1004900001045ED052EA03045BD0C3F30A54C1F3F3
:1004A0000A552C44A4F2F3340194A0FB0254C1F386
:1004B000130141F48011C3F3130343F4801301FBD0
:1004C000024400FB034E840A970A44EA815447EA37
:1004D0008357A4FB076802958D0A05FB07854FEA41
:1004E000932C04FB0C542705029D4FEA065847EA5B
:1004F0001637B5EB08056EEB070C870E920E47EA30
:10050000811742EA8312A7FB0201B6EB0B0164EBF1
:1005100000042B0D43EA0C335E1844EB1C50DA4602
:100520005146E7FB0201C5F313044FEA0B3343EADC
:1005300014534FEA0432019C43EA0603A4F10C046D
:100540000294009CCDE900B400F02CF903B0BDE8A2
:10055000F08F00200146F9E72DE9F04D81EA030410
:1005600004F0004B21F0004514464FF0000A23F040
:10057000004150EA050220D054EA01021DD0C5F323
:100580000A570246C5F31303C1F31300C1F30A5619
:1005900040F4801543F48013A7EB0608101BD646E1
:1005A00008F2FD3873EB050002D308F1010801E001
:1005B00092185B41B8F1000F03DA00200146BDE854
:1005C000F08D00204FF48011064684460EE0171B84
:1005D00073EB050705D3121B63EB050306434CEAD7
:1005E000010C49084FEA300092185B4150EA0107BC
:1005F000EDD152EA030012D082EA040083EA050139
:10060000084305D0101BAB4106D20122002306E0AF
:1006100000224FF0004302E06FF0010253101AEB8A
:1006200006004CEB085110EB0A0041EB0B01BDE852
:10063000F04D00F0A8B80EB5C10F80EAE070084494
:10064000CA07002140F233438DE80E000A460B46EC
:1006500000F0A8F803B000BD00F0004230F0004008
:100660000AD0C10D01F56071C0F3160042EA0151D4
:10067000C20840071143704700200146704701F04F
:10068000004330B421F0004150EA010206D00A0DC7
:10069000A2F56072C1F31301002A02DC30BC002015
:1006A0007047440F44EAC104C100E01830BC00EBBD
:1006B000C25000F031B8202A04DB203A00FA02F1DF
:1006C000002070479140C2F1200320FA03F3194340
:1006D00090407047202A04DB203A21FA02F00021E2
:1006E000704721FA02F3D040C2F120029140084342
:1006F00019467047202A06DBCB17203A41FA02F050
:1007000043EAE07306E041FA02F3D040C2F120026E
:1007100091400843194670470029A8BF7047401C04
:10072000490008BF20F00100704710B4B0FA80FC07
:1007300000FA0CF050EA010404BF10BC704749B144
:10074000CCF1200421FA04F411FA0CF118BF0121B4
:1007500021430843A3EB0C01CB1D4FEA00614FEA94
:10076000102042BF002010BC704700EBC350104463
:100770000029A4BF10BC7047401C490008BF20F0EE
:10078000010010BC704710B5141E73F1000408DAA4
:10079000401C41F1000192185B411A4301D120F045
:1007A000010010BD2DE9F04D92469B4611B1B1FA02
:1007B00081F202E0B0FA80F220329046FFF77BFF30
:1007C00004460F4640EA0A0041EA0B0153465A46E6
:1007D000084313D0114653EA010019D0C8F1400272
:1007E0005046FFF777FF05460E46504659464246AB
:1007F000FFF761FF084305D0012004E02046394699
:10080000BDE8F08D0020054346EAE0762C433743EF
:100810000A986305E40AA0EB08000022FD0A44EAF6
:1008200047540A3002D500200146E9E701051019B6
:100830006941DDE9084500196941BDE8F04DA2E7CD
:10084000064C074D06E0E06840F0010394E807001D
:1008500098471034AC42F6D3FFF79AFC686300085F
:10086000886300080EB540F2334102910021CDE9C2
:1008700000110A460B46FFF795FF03B000BD70B5A7
:10088000C1F30A5201F000450024C1F3130140F204
:10089000FF3341F480119A4201DA002070BD40F22A
:1008A00033439A42A2F2334203DC5242FFF712FF73
:1008B00000E090402C43F1D0404270BDFEE70000C4
:1008C000014800F0EFBB0000FC000020014800F0F0
:1008D000E9BB0000FC000020014800F0E3BB000081
:1008E00024010020014800F0DDBB000024010020AD
:1008F00070B56C212DED028B1D48FFF709FD1C48DA
:10090000BFEE000A642180ED070A803004F088F908
:10091000174864216C3004F083F99FED168A9FED2F
:10092000160A0023F0EE480A2822B0EE601A0321CE
:10093000124801F0C9FE124DDFED128A00244FF477
:10094000FA5600BF04EB041005EB8000B0EE481A25
:10095000F0EE000AB0EE680A00233246032101F0EF
:10096000B3FE641C042CEDDBBDEC028B70BD0000FB
:100970004C480020000000009A99D93F140800203C
:10098000580800200000C843014800F04DBE000098
:10099000A406002001681823CAB2103AB2FBF3F291
:1009A000054B6FF30901032A9B5CC36500D9091D40
:1009B0008165084670470000D061000810B5014607
:1009C00000208B698A6A4FF0C07453B1B3F5005FA1
:1009D00015D072B1012A0CD0022A0AD0032A09D1FB
:1009E00004E01AB1012A06D0022A03D1C96AC9015A
:1009F00000D5012010BDC96AA142FAD010BD002A5D
:100A0000F7D0012AF2D0022AF3D0032AF3D010BD86
:100A100030B50468256825F4802525600468636086
:100A20008368402B036803D099600068C26030BDC2
:100A30009A600068C16030BD704770472DED028B31
:100A400084B01E4E1E4D4FF0FF374FF400783A46EB
:100A50004146684603F0A2FB01988005F7D50020C7
:100A6000B3EE030A00EB001106EB8101D1ED040A9D
:100A700005EB8001401C80EE801AC0B2042881ED95
:100A8000081AEFD300249FED0F8B00BF04EB041076
:100A900006EB8000C06BFFF7CEFD53EC182BFFF781
:100AA0005BFDFFF7ECFD05EB8401641CE4B2086418
:100AB000042CEBD304F0B8F8C9E7000004020020CE
:100AC0004C48002000000000000033400EB54FF0FD
:100AD000FF3422460821684603F060FB01980007B6
:100AE000F7D504F0B1FA03F01BF904F0CDFAF0E702
:100AF00070B5284A13685B1C13600A88C2F30A05A4
:100B0000A5F5806505804A788B78D20842EA4312C1
:100B1000C2F30A04A4F5806444808A78CB789209F1
:100B200042EA83020B790A3542EA8322C2F30A03BE
:100B3000A3F5806383800A794E79520842EAC6128F
:100B4000C2F30A02A2F580620026C280142D00D8EA
:100B500006800A34142C00D846800A33142B00D89F
:100B600086800A32142A00D8C6804A799209027215
:100B70004A79C2F301124272CA8842810A8982818B
:100B80004A89C2810A7B82744A7BC274C989818284
:100B900070BD0000BC0000202DED028B84B0224D02
:100BA0004FF0FF364FF4807832464146684603F0F6
:100BB000F5FADDE900100829F6D1C005F4D51B4887
:100BC00024229FED1B1AC16B1A4F91FBF2F100EE2C
:100BD000101A9FED198B0024B8EEC00A10EE101AFF
:100BE0002963D0ED040A80EE810A10EE100A6863D2
:100BF00004EB840000EB441007EB8000D0F88C007D
:100C0000FFF719FD53EC182BFFF734FCFFF737FD06
:100C100005EB8401641CE4B2C1F81B00022CE7D38D
:100C200004F096F8C0E70000E04800203C040020F3
:100C3000000010421403002033333333338BE83F7A
:100C40002048214ADFED210A03782148B3EE0E0A3D
:100C5000012BC16B07D0022B0DD01E4A914212D33B
:100C6000DFED1D0A14E0914212D21C4A914211D8C4
:100C7000F9EE040A0CE091420AD2194A914209DBCA
:100C800080ED0F0A06E0174A914203DBF2EE080AF4
:100C9000C0ED0F0A90ED021AD0ED0E1A71EE400A67
:100CA000F4EEE01AF1EE10FA02D8C0ED0E0A704729
:100CB00031EE000AF4EEC01AF1EE10FAF7DB80ED27
:100CC0000E0A7047B9000020000048C2000048C268
:100CD000E447002000000CC200000CC20000A0C0CD
:100CE0000000F0410000404170B568212DED028BFD
:100CF0002548FFF70DFB2449002008704870C821E3
:100D0000224803F08DFF4FF47A742146204803F007
:100D100087FF9FED208A2346B3EE0E0AB0EE481AF5
:100D2000F0EE480A1A4603211B4801F0CDFCDFED26
:100D30001B8A650041F27076B0EE481AF0EE480A60
:100D4000B0EE680A2B4632460321154801F0BCFC80
:100D50002346B0EE481AF0EE480AB3EE040A1A46EB
:100D60000321104801F0B0FCB0EE481AF0EE480A3A
:100D7000B0EE680ABDEC028B2B463246BDE87040EF
:100D80000321094801F0A0BCE4470020CC0000206A
:100D9000E000002000000000480700200000704232
:100DA000D0070020040700208C07002090F82020A6
:100DB000012A09D090F82020022A05D0416A41F486
:100DC0008021416201207047006842690A43426104
:100DD00000207047F0B590F82040012C07D090F823
:100DE0002040022C03D0416A41F4802153E0046882
:100DF000A5686D0105D4A5682D0102D4A568ED0094
:100E000046D5A4680125C4F30164A5401D608D6822
:100E10004FF4C0739DB1CE6835434E6845EAC605B0
:100E2000066803EB0417F5514FF4C275076805EB2C
:100E300004150E697E51097D012905D009E00E884F
:100E4000CD6845EA4655EBE701684E5946F4807691
:100E50004E511179D2F805504FF4C67641EA05217A
:100E6000056806EB0416A9511178D2F801204FF459
:100E7000C47541EA0221026805EB0415515100686E
:100E800003EB0411425842F0010242500020F0BD31
:100E9000416A41F4001141620120F0BD10B590F8A3
:100EA0002020012A09D090F82020022A05D0416A8A
:100EB00041F480214162012010BD3A48D0F800225F
:100EC00042F00102C0F80022D0F8002222F47C5245
:100ED000C0F80022D0F800224B6A42EA0322C0F890
:100EE00000220B7D01229A40D0F81C329343C0F8B7
:100EF0001C32CB69B3B9D0F80C329343C0F80C3232
:100F00008C894B6864F31F434C6900EBC404C4F83C
:100F100040320C890B6864F31F434C6900EBC40436
:100F2000C4F84432CB69012B16D1D0F80C321343EC
:100F3000C0F80C320C884B6864F31F434C6900EB1B
:100F4000C404C4F840320C89CB6864F31F434C6975
:100F500000EBC404C4F844328B69002BD0F804328F
:100F60000ED01343C0F804320B69002BD0F81432B2
:100F700008D01343C0F81432096A012904D008E0EC
:100F80009343EFE79343F5E7D0F81C121143C0F801
:100F90001C12D0F8001221F00101C0F8001200204C
:100FA00010BD000000640040704730B590F820404C
:100FB000012C07D090F82040022C03D0416A41F464
:100FC000802109E011B1012909D00CE00468E4682E
:100FD00007E0416A41F400114162012030BD04681C
:100FE0002469A407F5D04FF4D874056804EB011404
:100FF0002D5915F00405956005682D5942D0ED086E
:10100000556005682C59C4F34004D4604FF4DA7479
:10101000056804EB01142D5905F00F0515610568ED
:101020002D59C5F30725956105682C59240C546189
:101030004FF4DC72046802EB0112A4581C700468BF
:10104000A458240A5C700468A458240C9C7004689A
:10105000A258120EDA704FF4DE72046802EB01122D
:10106000A4581C710468A458240A5C710468A4582C
:10107000240C9C710468A258120EDA7129B101295E
:1010800009D00DE06D0D1560BBE70068C16841F047
:101090002001C16004E00068016941F020010161A4
:1010A000002030BD2DE9F05F054600680024466948
:1010B000D0F804908768D0F80CB0D0F810A0D0F821
:1010C0001880F10748D0F90714D001218160B807D2
:1010D00003D5284600F0A1FA0CE0780702D54FF4BA
:1010E000006407E0380702D54FF4805402E0284638
:1010F00000F092FAF80516D529684FF480708860E0
:10110000B80503D5284600F08AFA0CE0780502D528
:1011100044F4005407E0380502D544F4804402E06A
:10112000284600F07BFAF80316D529684FF4803082
:101130008860B80303D5284600F073FA0CE0780302
:1011400002D544F4004407E0380302D544F4803467
:1011500002E0284600F064FA300707D55FEACB606A
:1011600004D52968102044F40074C86070074FF05B
:10117000080707D55FEA0B7004D52868C7602846C2
:1011800000F092F9B00706D52868C068800702D041
:10119000284600F08BF9700607D55FEACA6004D5CF
:1011A0002968102044F480640861B00607D55FEA1E
:1011B0000A7004D528680761284600F0FDF9F0069A
:1011C00006D528680069800702D0284600F0F5F9A6
:1011D000B00308D55FEAC96005D5296810204860CA
:1011E000284600F0EBF9F00307D55FEA097004D553
:1011F00028684760284600F015FA300446D55FEAB3
:10120000497040D5F00504D55FEAC87001D044F0BC
:101210000104B00504D55FEA887001D544F00204EA
:10122000700504D55FEA487001D544F00404300528
:1012300029D518F0700F26D008F07000402815D07E
:1012400006DC102809D020280AD0302816D10AE060
:1012500050280ED0602811D10EE044F008040DE0B3
:1012600044F010040AE044F0200407E044F0400495
:1012700004E044F0800401E044F48074286881694B
:1012800021F070018161296804204860002C05D09C
:10129000686A204368622846FFF786FEBDE8F09F33
:1012A00070B5040003D094F8200010B104E00120D0
:1012B00070BD204600F082F82068016821F002012C
:1012C000016000F011FC0546052604E000F00CFC6E
:1012D000401B0A2811D8206840688007F6D420688F
:1012E000016841F00101016000F0FEFB05460BE0E2
:1012F00000F0FAFB401B0A2806D9606A40F400306F
:10130000606284F82060D2E720684068C007EFD0B0
:10131000207E0128206801683DD021F08001016015
:10132000607E01282068016838D021F0400101600A
:10133000A07E01282068016833D021F020010160DF
:10134000E07E0128206801682ED041F01001016084
:10135000207F01282068016829D021F00801016060
:10136000607F01282068016824D021F00401016019
:10137000D4E902010843D4E9041211430843616827
:10138000491E08432168C86100206062012084F87A
:101390002000002070BD41F08001C0E741F0400115
:1013A000C5E741F02001CAE721F01001CFE741F085
:1013B0000801D4E741F00401D9E70000F0B587B097
:1013C000044614216846FEF7A3FF324BDFF8C0C085
:1013D000276818680322022409252F490026401C8B
:1013E000674521D11860012807D1086840F00070D6
:1013F0000860086800F0007005908DE85400CDE9A1
:1014000003256946254800F097FA0022052113209C
:1014100000F000FC132000F0F1FB00220521142055
:1014200000F0F8FB14202EE0DFF874C067452CD1E3
:101430000F6847F080670F600F68012807F080672A
:101440000597186007D1086840F0007008600868C8
:1014500000F0007005904FF482508DE85100CDE906
:10146000032569460F4800F067FA002205213F2056
:1014700000F0D0FB3F2000F0C1FB002205214020FE
:1014800000F0C8FB402000F0B9FB07B0F0BD000041
:10149000006400402400002040380240000C02405C
:1014A0000068004000040240704700001FB53D493D
:1014B0003D4C884234D101F1680202AB0021394829
:1014C000FFF773FD374868300068A0F20120062856
:1014D00013D2DFE800F003030303131AC0B2207035
:1014E00000EB0011314800EB8100C1694A1C322930
:1014F000C26102A93FD902F00DFB1FBD2C4940F685
:101500004E40088302A92A4807E0294940F24F309B
:1015100044390883264802A9443802F059FB1FBD0C
:10152000224A6B466C3A0021A2F17400FFF73DFDA0
:101530001E4840F201226C380168A1F2012091425C
:1015400022D009DC642919D06529E8D118486946F8
:10155000443004F08BFD1FBD012815D00228FAD1BC
:1015600013498839C869421C32281148CA61694642
:10157000A0F18800D1D802F08DFC1FBD0C4869464F
:10158000443002F0FBFC1FBDC0B2607000EB800174
:1015900001EB4010074901EB8000694602F078FB3F
:1015A0001FBD0000FC0000202800002004020020D5
:1015B000C4040020140300207047704770470000E7
:1015C00070B5044690F82000012804D0606A40F409
:1015D0000020606218E0022084F820002068016882
:1015E00021F00101016000F07FFA05460EE000BF26
:1015F00000F07AFA401B0A2808D9606A40F40030EB
:101600006062052084F82000012070BD20684068D9
:10161000C007EDD1606270BD70477047704770477A
:1016200070477047704700002DE9F84304464FF0BB
:101630000009CDF8009063484FF41651A56D00687D
:10164000B0FBF1F72E6894F85C10082000FA01F165
:1016500031420FD021680A6852070BD50A6822F080
:1016600004020A6094F85C108840A860606D40F045
:101670000100606594F85C104FF0010808FA01F071
:10168000304208D021684969090604D5A860606D18
:1016900040F00200606594F85C10042088403042FD
:1016A00008D021680968890704D5A860606D40F0FA
:1016B0000400606594F85C1010208840304218D017
:1016C00021680968090714D5A860206801684903E2
:1016D00004D50068000308D5A16C07E00168C905BE
:1016E00003D4016821F008010160216C09B1204692
:1016F000884794F85C1020208840304231D021681F
:101700000968C9062DD5A86094F835000528206819
:10171000016806D0490347D5006800031DD4616CF9
:101720001CE021F0160101602068416921F0800170
:101730004161206C08B9A06C20B12068016821F0DB
:101740000801016094F85C103F208840A86084F88C
:10175000349084F83580216D1FE0E16B09B120469B
:101760008847606D00282BD0606DC00714D005201D
:1017700084F835002068016821F0010101600098BB
:10178000401C0090B84203D820680068C007F6D11A
:1017900084F8349084F83580E16C002910D001B0D1
:1017A0002046BDE8F04308470168C905D5D4016863
:1017B00021F01001016084F8349084F83580CCE782
:1017C000BDE8F883400000202DE9F041044600F018
:1017D0008BF906465CB1002584F83450022084F869
:1017E00035002068016821F0010101600DE0012051
:1017F000BDE8F08100F078F9801B052805D920208C
:101800006065032084F83500F2E720680068C007AF
:10181000F0D12268116820480140D4E9010318433F
:10182000D4E903363343184363691843A369184363
:10183000E3691843236A18430843616A042903D102
:10184000D4E90B1319430843106020684069666AA5
:1018500020F0070130460E43012704280CD1A06A6E
:101860000643E06A40B12046FFF7A8F820B14020C7
:10187000606584F83570BAE7206846612046FFF756
:1018800089F894F85C203F2191408160656584F877
:1018900035700020ACE700003F8010F02DE9F041EA
:1018A0000446866D90F83400002501280DD00120F3
:1018B00084F8340094F835700020012F07D084F8A4
:1018C000340002252846BDE8F0810220FBE702270C
:1018D00084F8357060652046FFF79AF894F85C103C
:1018E0003F208840B0602068016841F01601016027
:1018F0002068416941F080014161206C20B120687D
:10190000016841F0080101602068016841F00101AF
:101910000160D7E770B5044600F0E6F80546601CA4
:1019200002D004480078044400F0DEF8401BA042D6
:10193000FAD370BD340000202DE9F84FDFF87CB1F8
:1019400000224FF001084FF0030A4FF00F090BF18E
:10195000040E00BF0B6808FA02F42340A3426ED1C4
:101960004D68022D01D0122D0ED1D50800EB850C4B
:10197000DCF820505607F70E09FA07F6B5430E6952
:10198000BE402E43CCF82060066855000F790AFA55
:1019900005FC07F0030726EA0C06AF403743076053
:1019A0004E68012E05D0022E03D0112E01D0122E2A
:1019B0000ED18668CF6826EA0C06AF4037438760B1
:1019C0004668A6430C79C4F3001494403443446041
:1019D000C6688C6826EA0C06AC403443C4604C6888
:1019E000E40065D5364C256845F4804525602468BB
:1019F00022F0030504F480440094324C2E19D6F8EA
:101A0000084895072F0F09FA07F5AC432E4DA84259
:101A100001D1002524E02D4DA84201D101251FE070
:101A20002B4DA84201D102251AE02A4DA84201D12E
:101A3000032515E0284DA84202D1042510E037E027
:101A4000264DA84201D105250AE0254DA84201D125
:101A5000062505E0234DA84201D1072500E0082511
:101A6000BD402543C6F80858DBF800405D464E6887
:101A70009C43F60300D51C432C60DEF800407546FD
:101A80004E689C43B60300D51C432C600B4D0835B3
:101A90002C684E689C43F60200D51C432C60074D11
:101AA0000C352C684E689C43B60200D51C432C6054
:101AB000521C102AFFF44EAFBDE8F88F003C0140E5
:101AC000443802400030014000000240000402405F
:101AD00000080240000C02400010024000140240C6
:101AE00000180240001C0240014880687047000056
:101AF00034000020024881680278114481607047F8
:101B0000340000200B4810B5016841F400710160F9
:101B1000016841F480610160016841F480710160F5
:101B2000032000F097F80F2000F006F800F024F8EA
:101B3000002010BD003C024070B50D4D04464FF42E
:101B40007A712878B1FBF0F00A490968B1FBF0F02E
:101B500000F01AFB48B9102C07D200222146501E73
:101B600000F058F800206C6070BD012070BD0000CE
:101B700034000020400000201F4808B5016841F4EF
:101B800080410160006800F4804000901A48001F06
:101B9000016841F080510160006800F080500090C1
:101BA000032000F057F8002211466FF00B0000F000
:101BB00031F8002211466FF00A0000F02BF80022E5
:101BC00011466FF0090000F025F800221146501F61
:101BD00000F020F800221146101F00F01BF8002230
:101BE0000F21901E00F016F800220F21BDE80840DA
:101BF000501E00F00FB800004438024000F01F02F1
:101C0000012191404009800000F1E020C0F800115E
:101C100070470000F0B40E4B1B680C46C3F3022360
:101C2000C3F10705042D00D90425191D072901D288
:101C3000002300E0DB1E012606FA05F1491E2140C3
:101C400099409E40761E16403143F0BC00F02CBDFA
:101C50000CED00E0064900F0070208684FF6FF03AC
:101C6000184040EA0220034A104308607047000011
:101C70000CED00E00000FA052DE9F0470E460500E6
:101C800065D0DFF81481D8F80000F7B200F00F003B
:101C9000B04207D288F80070D8F8000000F00F00BA
:101CA000B04254D128683D4C810712D5400703D576
:101CB000206840F4E05020602878000703D52068B1
:101CC00040F4604020602068A96820F0F0000843DC
:101CD00020602878C0072DD030496868083901286D
:101CE00012D0022813D0032811D0096889070029CF
:101CF0002DDA216821F0030101432160FFF7F4FE92
:101D0000814641F2883A0EE009688903EFE70968E5
:101D10008901ECE7FFF7E8FEA0EB0901514502D984
:101D20000320BDE8F0872068696800F00C00B0EB84
:101D3000810FEFD1D8F80010404601F00F01B142F9
:101D400007D90770006800F00F00B04201D00120F1
:101D5000E7E72878400705D52068E96820F4E050D7
:101D6000084320602878000706D52068296920F4F8
:101D7000604040EAC100206000F03CF82168084A59
:101D8000C1F30311515CC840064908600F20FFF7FA
:101D9000D3FE0020C5E70000003C024008380240A6
:101DA000D86100084000002001480068704700002A
:101DB000400000200448054900680968044AC1F34E
:101DC0008221515CC8407047400000200838024022
:101DD000E86100080448054900680968044AC1F33D
:101DE0004231515CC8407047400000200838024032
:101DF000E8610008154810B5006810F00C0214489E
:101E000013D04110042A0FD0082A0ED10F4C241FE2
:101E10002268236802F03F025B0207D52068C0F306
:101E20008810A0FB010106E0084610BD2168C1F33F
:101E30008811A1FB00010023FEF720FA2168C1F3FD
:101E40000141491C4900B0FBF1F010BD08380240C7
:101E50000024F4002DE9F84F050076D02878DFF84B
:101E6000F8B2BE4CC00749D0DBF800105846C1F3A9
:101E70008101012908D00068C0F3810002280AD13D
:101E8000201D0068400206D52068800336D56868AA
:101E90000028E2D032E06868B0F5803F10D0B0F59D
:101EA000A02F206810D020F480302060206820F41B
:101EB000802020606868A0B1FFF716FE06460CE09F
:101EC000206840F48030F4E740F480202060F7E799
:101ED000FFF70AFE801B642873D820688003F7D5BB
:101EE0000CE0FFF701FE064605E000BFFFF7FCFD32
:101EF000801B6428F0D820688003F7D42878DFF8A6
:101F0000608280074FF000093ED5DBF8001058468C
:101F100011F00C0F09D00068C0F3810002280BD12A
:101F20008D48001F0068400206D42068800715D540
:101F3000E868012809D111E0E868B8B10120C8F8C3
:101F40000000FFF7D1FD064605E002E1FFF7CCFDFA
:101F5000801B0228C0D820688007F7D5206829692F
:101F600020F0F80040EAC10020600DE0C8F80090C1
:101F7000FFF7BAFD064604E0FFF7B6FD801B022816
:101F80001FD820688007F7D42878000722D5724E22
:101F9000744869696C3671B101210160FFF7A4FDD5
:101FA000074604E0FFF7A0FDC01B022809D83068EF
:101FB0008007F7D50EE0C0F80090FFF795FD0746C3
:101FC00005E083E0FFF790FDC01B02287ED8306853
:101FD0008007F7D42878400768D5DFF87CA1002770
:101FE0000AF1380ADAF80000C0000BD4DAF8001061
:101FF00041F08051CAF80010DAF80000012700F023
:1020000080500090584E3068C00510D4306840F4BD
:1020100080703060FFF768FD009005E0FFF764FD19
:102020000099401A022851D83068C005F6D54A4EAA
:10203000A868683601280FD00528306810D020F035
:1020400001003060306820F004003060A868B8B14A
:10205000FFF74AFD00900FE0306840F00100F4E720
:1020600040F004003060F7E7FFF73EFD0099411AA9
:1020700041F28830814264D830688007F4D50EE0A0
:10208000FFF732FD009007E0FFF72EFD0099411A9F
:1020900041F28830814254D830688007F4D42FB19F
:1020A000DAF8001021F08051CAF80010A869C0B316
:1020B000DBF80010C1F3810102294AD0022848460A
:1020C00007D0C8F86000FFF70FFD00E039E00546D3
:1020D0003AE04746C8F86000FFF706FD064604E010
:1020E000FFF702FD801B02282BD820688001F7D45F
:1020F000D5E907010843A96A1C4A490802EB0141D6
:102100006A6A41EA8211084395F82C1040EA01619D
:102110001148001F016001203866FFF7E5FC054605
:1021200005E014E0FFF7E0FC401B022809D8206816
:102130008001F7D50BE000BFFFF7D6FC401B02285B
:1021400002D90320BDE8F88F20688001F4D4002074
:10215000F8E70120F6E700000838024000380240A6
:1021600000004742800E4742007000400000FFFF21
:102170004FF0E0210428086903D020F00400086132
:10218000704740F00400FAE710B5401EB0F1807FC0
:1021900001D3012010BD4FF0E02460610F216017D2
:1021A00000F082FA0020A06107202061002010BD0D
:1021B000704770B5040004D094F83900002510B1C0
:1021C00006E0012070BD84F83850204600F022F867
:1021D000242084F839002068C16821F40051C160CE
:1021E000204600F0CBFB2068016921F49041016199
:1021F0002068416921F02A0141612068C16841F4E9
:102200000051C160E563202084F8390084F83A0069
:10221000002070BDF0B587B0064614216846FEF771
:1022200077F8DFF8CCC0306800253249022201235C
:102230000324072760451AD12E481430056845F05D
:1022400010050560006800F010000590086840F077
:10225000010008600868694600F00100059060020E
:102260008DE89D002448FFF767FB07B0F0BDDFF85D
:102270008CC06045F9D11F481030D0F800C04CF434
:10228000003CC0F800C0006800F400300590086809
:1022900040F0080008600868694600F008000590F2
:1022A00060208DE89D001648FFF746FB164C154848
:1022B00020604FF00060C4E901054014C4E90350F8
:1022C00080106561C4E90650256220466562FFF70B
:1022D0007BFA08B1FEF7B1FB7463002205212620CA
:1022E000A663FFF797FC2620FFF788FCBDE70000F8
:1022F000001001403038024000000240004400401D
:10230000000C024088600240A4060020F8B5044694
:1023100090F83A0020283CD1C1B3BAB394F8380001
:10232000012836D0012084F83800A162A28500255A
:10233000E563222084F83A00636B1748D863636B27
:1023400016481864636B1648D864606B13460565BD
:102350000846666B216802463046091DFFF79EFA63
:10236000206801684168009184F83850C16841F4E0
:102370008071C1602068416941F0010141612068BC
:10238000416941F0400141610020F8BDFFE70120B3
:10239000FBE70220F9E700000729000843290008AD
:1023A000BD28000870477047FEE7000010B51B48C5
:1023B0001949002401600321C0E901144FF40021F0
:1023C000C0E903414FF440114161047644768476BC
:1023D000C47604774477FEF763FF08B1FEF72DFB60
:1023E0000E480121B830046044608460C460046118
:1023F0004461C0E9064101620E2141620146B838DC
:10240000FEF74CFD0548FFF7DBF8BDE81040022160
:102410000248FEF7CBBC000000640040FC00002036
:1024200010B51A481849002401600321C0E90114BD
:102430004FF43021C0E90341446104764476847648
:10244000C47604774477FEF72BFF08B1FEF7F5FA60
:102450000E480E21B8300122046044608460C460DC
:10246000C0E90441C0E90642C0E908210146B83884
:10247000FEF714FD0548FFF7A3F8BDE81040022160
:102480000248FEF793BC00000068004024010020D1
:10249000114808B5016841F400110160016801F4B8
:1024A00000110091016841F4800101600068002280
:1024B00000F48000009005211020FFF7ABFB1020F6
:1024C000FFF79CFB002205214420FFF7A3FBBDE89A
:1024D00008404420FFF792BB3038024030B5A1B02D
:1024E00002F0B2FD2F4D0022012128681E901EA887
:1024F00001F0A0FE2C4C00220121A06168681F9011
:102500001FA801F097FEE061A86820900022012139
:1025100020A801F08FFE2062142205F10C0168460C
:10252000FDF7DDFE0021684601F06DFE20611422FA
:1025300005F1200105A8FDF7D2FE002105A801F054
:1025400062FE6060142205F134010AA8FDF7C7FE9F
:1025500000210AA801F057FEA060142205F14801ED
:102560000FA8FDF7BCFE00210FA801F04CFEE060B3
:10257000142205F15C0114A8FDF7B1FE002114A896
:1025800001F041FE6061142205F1700119A8FDF708
:10259000A6FE002119A801F036FE206002F074FDAD
:1025A00021B030BD4C61000800000020194808B57A
:1025B000016841F001010160016801F00101009131
:1025C000016841F002010160016801F0020100911F
:1025D000016841F004010160016801F0040100910B
:1025E000016841F008010160016801F008010091F3
:1025F000016841F010010160016801F010010091D3
:10260000016841F080010160006800F080000090E6
:1026100008BD0000303802400C4810B50A4901607E
:102620004FF4E1314160002181600C22C160C0E9BA
:1026300004128161C161FFF7BCFD002803D0BDE831
:102640001040FEF7FAB910BD00100140E40500206B
:1026500010B5124C10484FF4806120601048606043
:102660000020A060C4E903010421C4E90510E06171
:102670002046FFF79EFD08B1FEF7DFF92068C1682C
:1026800041F01001C16005498022BDE81040CE39FB
:102690000248FFF73BBE0000004400402406002033
:1026A000A0860100FEE770470907090E002806DA38
:1026B00000F00F0000F1E02080F8141D704700F1D9
:1026C000E02080F80014704710B504462DED048B0F
:1026D000B0EE418AF0EE608A0A48E0630A4820645E
:1026E000B0EE409A204601F058FE216CB0EE481A38
:1026F000F0EE680AB0EE490ABDEC048B2046BDE856
:10270000104008479B430008A94300082DE9F04109
:102710001F4D00242DED028B41F658369FED1D8A8A
:10272000DFED1D8A42F2107704EB041005EB800008
:10273000B0EE481AF0EE080AB0EE680A33463A46A0
:102740000321FFF7C1FF641C022CEDDB1349642059
:10275000B0EE481A8862F0EE480AB6EE000A4FF46E
:10276000FA631E2203210E48FFF7AEFFB0EE481AAF
:10277000BDEC028B3A46BDE8F041F0EE000A9FED59
:10278000090A41F2883303210748FFF79DBF000083
:10279000680900200000000000001643E048002007
:1027A000F009002000009644340A0020012001F0C6
:1027B000ADFCFBE710B5FFF79DF9BDE8104001F057
:1027C00018BD000030B593B030216846FDF7A0FD7C
:1027D00014210CA8FDF79CFD21480025016841F05B
:1027E00080510160006800F0805011901D48016820
:1027F00041F4804101600068022400F4804011909F
:10280000012000904FF4A02001906005CDE9064022
:1028100008AA0420A82182E813000B906846FFF75D
:1028200019FB0CA90F2081E831004FF4A0500F9044
:10283000E002109005210CA8FFF71EFAFFF7B4FA8A
:102840004FF47A71B0FBF1F0FFF79EFC0420FFF724
:102850008FFC00220F21501EFFF7DCF913B030BDB2
:1028600040380240007000401048016841F4700197
:1028700001600F48016841F0010101600C4A00212C
:102880000832116002680B4B1A400260031D0A4AAD
:102890001A60026822F48022026005480C30016050
:1028A00002495806803908607047000088ED00E052
:1028B00000380240FFFFF6FE1030002470B5846B34
:1028C0002068406994F83910C0F3C0100025212910
:1028D00004D118B1E584204600F046F8206840692C
:1028E00094F83A10C0F38010222904D118B1E5857C
:1028F000204600F02BF8E06B40F01000E06320462B
:10290000FFF756FC70BD10B50146806B0968096879
:10291000C90513D40021C1850168CA6822F48072F8
:10292000CA6001684A6922F001024A6101684A6985
:1029300022F040024A61202180F83A10FFF732FD70
:1029400010BD10B5806BFFF72EFD10BD0168CA6881
:1029500022F49072CA6001684A6922F001024A6159
:10296000202180F83A1070470168CA6822F0C0023E
:10297000CA60202180F83910704700002DE9F0412D
:1029800004460068016921F44052E1681143016185
:102990002168C86849F20C6290432369A268E5691E
:1029A0001A4363692B431A430243CA60216848698A
:1029B00020F44072A06910434861E1696425B1F5D3
:1029C000004F9748974A21684FF032083FD0914214
:1029D00001D081427CD1FFF7FDF900EBC00101EB92
:1029E000001061688900B0FBF1F6FFF7F3F900EB26
:1029F000C00101EB001061688900B0FBF1F0B0FB91
:102A0000F5F06FF01801484306EB800108EB011068
:102A1000B0FBF5F000F0F006FFF7DCF900EBC001C9
:102A200001EB001061688900B0FBF1F0B0FBF5F03C
:102A300006EB0016FFF7CEF900EBC00101EB00102A
:102A400061688900B0FBF1F7FFF7C4F9D2E0914269
:102A500001D081423DD1FFF7BDF900EBC00101EB90
:102A6000001061684900B0FBF1F0B0FBF5F0060121
:102A7000FFF7B0F900EBC00101EB001061684900FD
:102A8000B0FBF1F7FFF7A6F900EBC00101EB001076
:102A900061684900B0FBF1F0B0FBF5F06FF0180190
:102AA000484307EB800108EBC100B0FBF5F000F0F4
:102AB000F80006EB4006FFF78DF900EBC00101EBD3
:102AC000001061684900B0FBF1F7FFF783F93CE0C3
:102AD00055E0FFF76FF900EBC00101EB00106168F2
:102AE0004900B0FBF1F0B0FBF5F00601FFF762F929
:102AF00000EBC00101EB001061684900B0FBF1F789
:102B0000FFF758F900EBC00101EB001061684900C4
:102B1000B0FBF1F0B0FBF5F06FF01801484307EBA4
:102B2000800108EBC100B0FBF5F000F0F80006EB07
:102B30004006FFF73FF900EBC00101EB00106168B0
:102B40004900B0FBF1F7FFF735F900EBC00101EBED
:102B5000001061684900B0FBF1F0B0FBF5F06FF0D8
:102B60001801484307EB800108EBC100B0FBF5F00A
:102B700000F00700216830448860BDE8F081FFF76D
:102B800019F900EBC00101EB001061688900B0FB8E
:102B9000F1F6FFF70FF900EBC00101EB00106168DF
:102BA0008900B0FBF1F0B0FBF5F06FF0180148437D
:102BB00006EB800108EB0110B0FBF5F000F0F00629
:102BC000FFF7F8F800EBC00101EB00106168890025
:102BD000B0FBF1F0B0FBF5F006EB0016FFF7EAF8FA
:102BE00000EBC00101EB001061688900B0FBF1F758
:102BF000FFF7E0F800EBC00101EB0010616889000D
:102C0000B0FBF1F0B0FBF5F06FF01801484307EBB3
:102C1000800108EB0110B0FBF5F000F00F00A9E710
:102C2000001401400010014010B51E4C20680168DE
:102C3000C90635D5C168C90632D541680168016841
:102C400021F010010160606B0068016821F0010152
:102C50000160606B00684068134980B26E2808808C
:102C600005D1A4F1CE01A1F11600FDF741FF0D49F8
:102C70008022CE390B48FFF749FB2068C16841F03C
:102C80001001C16009494FF47460C860616B802015
:102C900009684860606B0068016841F001010160EB
:102CA00010BD00002406002030000020006002401B
:102CB000114801680A68D2061CD5CA68D20619D51F
:102CC0004A680968416B09680A6822F001020A60D3
:102CD000416B0A685268094B1A80094B4FF47462C1
:102CE0001A60096880224A60406B0068016841F000
:102CF00001010160704700006406002030000020E0
:102D000008640240FEE703B401984100009850EACD
:102D1000C12018BF04204A0D18BF40F0010040F246
:102D2000FF72B2EB515F08BF40F00200012808BFFC
:102D3000052002B07047000010B52F499FED2C1BF5
:102D40002DED020B84B0059820F000408842D8BFDA
:102D50009DED040B2DDD2949884209D1049840B925
:102D60004FF0010000F0D4FC00F0A2FC06B010BD52
:102D700005DB9DED040B00F08FFC06B010BD68462E
:102D80009DED040B00F0A0F810F0030004BF9DEDD2
:102D9000021B9DED000B0CD001280ED09DED021BF7
:102DA0009DED000B022817D0012000F0DDFB06B0DE
:102DB00010BD00F0A5FA06B010BD9DED021B9DED03
:102DC000000B012000F0D0FB51EC100B81F0004112
:102DD00006B041EC100B10BD00F092FA51EC100B54
:102DE00081F0004106B041EC100B10BD0000000066
:102DF0000000000000000000FB21E93F0000F07F20
:102E000010B52F499FED2C1B2DED020B84B00598BA
:102E100020F000408842DCBF00209DED040B32DD35
:102E20002849884209D1049840B94FF0010000F0C8
:102E30006FFC00F03DFC06B010BD05DB9DED040B02
:102E400000F02AFC06B010BD68469DED040B00F0B2
:102E50003BF810F0030011D0012818D09DED021BA3
:102E60009DED000B02281AD000F04AFA51EC100B2D
:102E700081F0004106B041EC100B10BD9DED021B2E
:102E80009DED000B012000F06FFB06B010BD9DED25
:102E9000021B9DED000B00F033FA06B010BD0120BF
:102EA00000F062FB51EC100B81F0004106B041ECE8
:102EB000100B10BD0000000000000000000000002A
:102EC000FB21E93F0000F07F2DE9F14F04462DED95
:102ED000020B2DED088B8AB09FEDE70B80ED020B06
:102EE000139EE74826F0004585420ADC9DED120B53
:102EF000002084ED000B0AB0BDEC088B03B0BDE8E8
:102F0000F08FE0489FEDE0AB9FEDE1BBA84247DDCD
:102F1000E14F9FEDE39B9FEDE48B9DED120B53EC96
:102F20001A2B51EC100B002E1CDDFDF79DFA41EC25
:102F3000100BBD4208D053EC1B2B51EC100BFDF7CE
:102F400093FAC4E900010BE053EC192B51EC100B80
:102F5000FDF78AFA53EC182BFDF786FAC4E9000155
:102F60000120C8E7FDF7DFF941EC100BBD4208D0A6
:102F700053EC1B2B51EC100BFDF7D5F9C4E9000104
:102F80000BE053EC192B51EC100BFDF7CCF953EC83
:102F9000182BFDF7C8F9C4E900014FF0FF30AAE78C
:102FA000C348A84279DB9DED120B51EC100B00F0E9
:102FB000ABFE41EC180B9FEDC00B53EC102BFDF753
:102FC00059FA9FEDBF1B53EC112BFDF7ACF9FDF740
:102FD00056FC0746FDF72FFB41EC190B53EC1A2B5F
:102FE000FDF748FA53EC182BFDF741FA41EC180BAA
:102FF00053EC1B2B51EC190BFDF73CFADFF8C8A280
:1030000041EC100B4FEA15580125FA4453EC102BF4
:1030100051EC180BFDF728FA032DC4E900013DD04F
:10302000C1F30A5005EB4511A8EB000011398142AC
:1030300034DA0AEB051BB0EE48AA9BED000BF0EE6C
:1030400068AA53EC102B51EC190BFDF713FA41EC65
:103050001B0B51EC1A0B53EC1B2BFDF705FA41EC43
:10306000180B51EC1A0B53EC182BFDF7FDF953EC30
:103070001B2BFDF7F9F99BED020B41EC1A0B53ECFE
:10308000102B51EC190BFDF7F5F953EC1A2BFDF74A
:10309000EBF941EC100B6D1CB8E70EE0002EA8BF59
:1030A0003846BFF628AF94ED000B51EC100B81F0C1
:1030B0000041C4E9000178421DE7C6F3130040F463
:1030C000801EC6F30A50A0F2F530471100F01F052C
:1030D000C5F12000DDF848B0089000200690079068
:1030E0000520EC467949002D07EB0002794408BF22
:1030F00051F8221009D051F8223001EB8201AB4087
:103100004A68089922FA01F11943A1FB0E26A1FB96
:103110000B131A449A4234BF0123002303EB060821
:103120000CEB8003D3E901A60E448E4234BF01218B
:10313000002192448A4411B1924502D903E092459C
:1031400001D2012100E00021C3E901A641444CF86D
:103150002010011EA0F10100C4DC029800F1005013
:10316000850F0298DDE903678000DDF81480FDF724
:1031700062FA41EC1A0B3046FDF774FB9FED541BCD
:1031800053EC112BFDF776F941EC1B0B3846FDF79C
:1031900069FB9FED511B53EC112BFDF76BF941ECD3
:1031A000180B4046FDF75EFB9FED4D1B53EC112BBA
:1031B000FDF760F941EC190B51EC180B53EC192B8E
:1031C000FDF7B1F853EC1B2BFDF7ADF853EC1A2BC0
:1031D000FDF7A9F8CDE90801002008909DED080B46
:1031E00053EC1A2B51EC100BFDF73EF953EC1B2B53
:1031F000FDF73AF953EC182BFDF736F953EC192B80
:10320000FDF735F99FED381B53EC112BFDF732F923
:103210009FED370B41EC180B53EC102B9DED080B79
:1032200051EC100BFDF726F953EC182BFDF77BF84A
:103230009FED310B41EC180B53EC102B9DED080B5F
:1032400051EC100BFDF716F953EC182BFDF76BF84A
:1032500041EC100B139810F0004F06D06D4251EC6A
:10326000100B81F0004141EC100B284684ED000B5F
:1032700041E6000000000000000000000000000027
:10328000FB21E93F7CD9024000004054FB21F93F7B
:103290003163621A61B4D03DFB21F93F00000000A8
:1032A0000000601A61B4D03D7370032E8A19A33BED
:1032B000FB2139410000000083C8C96D305FE43F45
:1032C000000000000000E03F12320000603100000A
:1032D000000000000000103E000000000000103C54
:1032E000000000000000103A182D4454FB21F93D65
:1032F0003326A611460B113C00000054FB21F93D7A
:1033000010B52DED040B2DED088B82B0B0EE419A77
:10331000F0EE619A0B9820F000449FED4BABB4F1B6
:10332000795F11DA9DED0A0B51EC100BFDF7A7FA4E
:10333000002801BFB0EE4A0AF0EE6A0A02B0BDEC06
:10334000088B04BF04B010BD9DED0A0B53EC102B8D
:1033500051EC100BFDF78EF841EC180B3C480621A0
:10336000B0EE480AF0EE680A784400F081F853ECB9
:10337000182B51EC100BFDF77DF89DED0A0B41EC7D
:103380001B0B53EC192B51EC100BFDF773F841ECB0
:10339000190B53EC1B2B51EC180BFDF76BF853EC8E
:1033A000192BFDF761F89FED2C0B41EC190B53EC39
:1033B000102B51EC180BFDF75DF841EC100B284871
:1033C000844210DA53EC192B51EC100BFDF74CF83A
:1033D00053EC1A2BFDF74BF841EC100B02B0BDEC8F
:1033E000088B04B010BD1F48A042BCBF9FED1E1B40
:1033F0008DED001B06DBA4F500100190002000906D
:103400009DED001B51EC100B53EC112BFDF72CF82C
:103410009DED000B41EC180B53EC102B51EC1A0BEB
:10342000FDF722F841EC1A0B53EC192B51EC180B59
:10343000FDF71AF853EC1A2BFDF719F841EC100BB5
:10344000CCE7000000000000000000000000F03F9A
:10345000842E000000000000000000000000E03F9B
:103460003333D33F0000E93F000000000000D23FAB
:1034700070B504462DED028B4D1E00EBC500B0EE7D
:10348000408AF0EE608A90ED000B35F0060017D010
:1034900053EC182B51EC100BFCF7ECFF41EC100B2C
:1034A0006D1E04EBC50090ED001B51EC100B53ECAE
:1034B000112BFCF738FF41EC100B35F00600E7D17B
:1034C000022D36D0042D1CD0062D1CBFBDEC028B66
:1034D00070BD53EC182B51EC100BFCF7CBFF94EDA7
:1034E0000A1B53EC112BFCF71EFF53EC182BFCF7B7
:1034F000C1FF94ED081B53EC112BFCF714FF41ECBA
:10350000100B53EC182B51EC100BFCF7B3FF94EDA0
:10351000061B53EC112BFCF706FF53EC182BFCF7A2
:10352000A9FF94ED040B53EC102BFCF7FCFE41ECCF
:10353000100B53EC182B51EC100BFCF79BFF94ED88
:10354000021B53EC112BFCF7EEFE53EC182BFCF78F
:1035500091FF94ED001B53EC112BFCF7E4FEBDEC46
:10356000028B41EC100B70BD31B504462DED040B00
:103570002DED0A8BB0EE41BAF0EE61BA0B989DEDDD
:103580000A0B20F00040B0F1795F0DDA51EC100B1E
:10359000FFF7B9FB042808BF00F09AF89DED0A0B6D
:1035A000BDEC0A8B05B030BD53EC102B51EC100B69
:1035B000FCF760FF41EC180B9DED0A0B53EC182B48
:1035C00051EC100BFCF756FF41EC190B2C48B0EEF8
:1035D000480AF0EE680A05217844FFF749FF9FED9D
:1035E0002ACBB0EE40AAF0EE60AA9CB353EC1C2BA1
:1035F00051EC190BFCF73EFF41EC1C0B53EC1A2B62
:1036000051EC190BFCF736FF9FED210B41EC190B28
:1036100053EC102B51EC1B0BFCF72CFF53EC192B2C
:10362000FCF722FF53EC182BFCF724FF53EC1B2B69
:10363000FCF71AFF53EC1C2BFCF716FF9DED0A1B41
:1036400053EC112BFCF713FFBDEC0A8B05B041ECDA
:10365000100B30BDFFE753EC1A2B51EC180BFCF7A5
:1036600009FF53EC1C2BFCF75EFE53EC192BFCF707
:1036700001FF9DED0A1B53EC112BFCF754FEE3E711
:103680000C2D000000000000495555555555C5BF8B
:10369000000000000000E03F10B553EC102B51EC8F
:1036A000100BFCF740FE41EC100B10BD00000000B9
:1036B0009FED050B10B553EC102B51EC100BFCF7E4
:1036C0004BFF41EC100B10BD00000000000000009B
:1036D0009FED050B10B553EC102B51EC100BFCF7C4
:1036E000C9FE41EC100B10BD0000000000000010EE
:1036F00002E008C8121F08C1002AFAD170477047BB
:10370000002001E001C1121F002AFBD17047000018
:103710000149086070470000F8000020D0ED000A61
:10372000F4EEC00AF1EE10FA01DD80ED000AD0EDF2
:10373000000AB1EE400AF4EEC00AF1EE10FA01D22E
:1037400080ED000A704700000EB510484FF0FF35BD
:1037500000F10804A61D2A46D021684600F01EFD8F
:10376000DDE900100829F6D1010603D5074801F06C
:1037700029FBF0E7410603D5204601F055FBEAE7B7
:10378000C006E8D5304601F081FBE4E7D0470020D1
:1037900000B580ED040A30EEC00AC0ED030A014610
:1037A00080ED070AF0EEE00A10EE900AB0F17E5FBD
:1037B00003DADFED360AC1ED090A086BD1ED060A1E
:1037C00001F12C02032802D0042827D053E091ED08
:1037D000001A01F1240021EE001A81ED081A91ED82
:1037E000091AD1ED011A01EE801A30EE600A81ED5E
:1037F000091AD1ED020A20EE200A81ED0A0A91EDA4
:103800000E0AB8EE400AFFF789FF91ED080AD1EDE4
:10381000090A30EE200AD1ED0A0A21E030EE601AE2
:10382000D1ED001AB0EE002A21EE211A81ED081A1E
:10383000D1ED011A61EE801A00EEC20AC1ED091A3B
:10384000D1ED050A30EE200AD1ED020A20EE200A61
:1038500071EE210A81ED0A0A30EE800AD1ED0B0AE1
:10386000104630EE200A81ED0B0A91ED0D0AB8EEFC
:10387000400AFFF753FF91ED060A81ED050A91ED2D
:10388000070A81ED060A91ED0B0A00BD0000000059
:1038900070B58D482DED048B0078DFED8C0A8C4CD3
:1038A00038B12146012891ED060A05D0022818D02A
:1038B00007E0C4ED020A04E0864800F0FBFC84ED5A
:1038C000020A94ED060A844DB5EEC00AF1EE10FA34
:1038D00004D310EE100A8149884237DC85ED000AD6
:1038E0003EE094ED032AB7EE001AFFEE001AB5EEA3
:1038F000C02AF1EE10FA0FD194ED042AB5EEC02AD9
:10390000F1EE10FA08D110EE100A7549884208DC71
:1039100010EE100A73490AE010EE100A724988424C
:1039200002DD84ED071A06E010EE100A6F498842A6
:1039300001D9C4ED071A94ED070AB3EE0E1A20EE72
:10394000011ADFED6B1A81EE210AB5E710EE100ABD
:103950006849884204DCDFED680A30EEC00ABDE742
:103960002868FCF779FE9FED651B53EC112BFCF7E3
:10397000F3FDFCF784FE2860FCF76EFE41EC100BB3
:10398000FFF73EFAB0EE408AF0EE608A2069FCF75D
:1039900063FE53EC182BFCF76DFD41EC180B286807
:1039A000FCF75AFE41EC100BFFF7C6F9B0EE409A57
:1039B000F0EE609AE068FCF74FFE53EC192BFCF731
:1039C00059FD53EC182BFCF74FFDFCF758FE206017
:1039D0002868FCF741FE41EC100BFFF7ADF9B0EEA3
:1039E000408AF0EE608A2069FCF736FE53EC182B13
:1039F000FCF740FD41EC180B2868FCF72DFE41EC6C
:103A0000100BFFF7FDF9B0EE409AF0EE609AE06817
:103A1000FCF722FE53EC192BFCF72CFD53EC182B72
:103A2000FCF781FCFCF72BFE00EE100A354E84ED0E
:103A3000010AD4ED000A94ED021A002570EE601A16
:103A400071EE811AC4ED141A70EE801A71EE811AAB
:103A5000C4ED151AF1EE601A71EEC01A30EEC00A0C
:103A600071EE811A30EE010AC4ED161A84ED170AC0
:103A700004EB8500D0ED140A90ED100A05EB05105B
:103A800006EB8000FFF784FEBDEEC00A04EB4501A3
:103A90006D1C10EE100A042DA1F86000E8DB1A4836
:103AA000216E0160616E416018488021006800F05D
:103AB00047FB17484FF400710068BDEC048BBDE86C
:103AC000704000F03DBB0000E44700200000000013
:103AD0004C48002014080020F4000020000034436B
:103AE00000004842000048C20000C8410000C8C1B0
:103AF0006666A63F0000B4430000B443F6285C8F1E
:103B0000C2A54CC058080020D0470020100000205B
:103B10000400002010B50288428009884BBA038057
:103B2000991A8268B1F5805F04DD521EA1F500513B
:103B3000826006E011F5805F03DA521C01F5005146
:103B40008260016203EB4231028BDFED1F0A891AAA
:103B5000C16090ED040A002280ED050A00EE101A03
:103B6000B8EEC00A80EE201A80ED041A90F83810E2
:103B7000036A00EB8104491C80F83810636290F8F6
:103B80003810052902D3002180F838105FF00001B9
:103B900000EB8103491C5B6AC9B21A440529F7D3BB
:103BA000C16B0164052192FBF1F100EE101ADFED0B
:103BB000070AC163B8EEC00A20EE200ABDEEC00AB3
:103BC00010EE101A818010BD610BB641355EEA40DF
:103BD00010B502884280098841F664144BBA03800C
:103BE000991A8268A14204DD521EA1F5005182603B
:103BF00007E041F66414E14203DA521C01F500517A
:103C00008260016203EB4231028BDFED1F0A891AE9
:103C1000C16090ED040A002280ED050A00EE101A42
:103C2000B8EEC00A80EE201A80ED041A90F8381021
:103C3000036A00EB8104491C80F83810636290F835
:103C40003810052902D3002180F838105FF00001F8
:103C500000EB8103491C5B6AC9B21A440529F7D3FA
:103C6000C16B0164052192FBF1F100EE101ADFED4A
:103C7000070AC163B8EEC00A20EE200ABDEEC00AF2
:103C800010EE101A818010BD610BB641355EEA401E
:103C900010B502884280098849BA0180891AB1F5B5
:103CA000805F05DD8268A1F50051521E826007E049
:103CB00011F5805F04DA826801F50051521C8260C0
:103CC0000B46016290F88810002200EB8104491C29
:103CD00080F88810636290F88810192902D30021B7
:103CE00080F888105FF0000100EB8103491C5B6ADB
:103CF000C9B21A441929F7D350F88C1F4160192111
:103D000092FBF1F1016010BD82B0CDE9000121F01C
:103D1000004001909DED000B02B051EC100B70477C
:103D200070B5264C264D207820B101281BD00228E2
:103D300019D032E0234800F057FF2348D0ED040AA1
:103D4000204820EE200A143884ED020A00F04CFFCF
:103D5000D5ED030A20EE200A84ED010A95ED050A4F
:103D600084ED070A19E095ED050AD4ED070A154818
:103D7000C82130EE600A143884ED020A95ED030A7A
:103D8000D4ED060A30EE600A84ED010A00F048FF27
:103D90004FF47A710B4800F043FF95ED0D0A84ED66
:103DA000040A95ED0B0A84ED050A00F0A1FFFCF76B
:103DB00047FFBDE87040012000F0A8B9E4470020AB
:103DC00008050020E0000020C4040020F0B52C48C5
:103DD000012490F909102B48012904D0022902D0AE
:103DE000032902D003E0047001E003210170C168DF
:103DF0004FF4C875B1FBF5F205FB1216224A0023F9
:103E000046B9D0E90167BE4202D182F85C4001E0C8
:103E100082F85C30C826B1FBF6F706FB171636B9F8
:103E2000B1FBF5F605FB161109B141688160174930
:103E300091ED040A1649D1ED030A134930EE200A28
:103E4000B1F85A1010EE105A491C09B2B5F1414FA1
:103E500005D9A2F85A10642900DD4470F0BD10EEB7
:103E6000104AB4F1824F06DDA2F85A106429F5DD3C
:103E700002214170F0BDA2F85A304370F0BD00003D
:103E800040050020B8000020E44700208004002006
:103E900008050020098849BA0180018370470000A5
:103EA0002D4810B501682D4C491C0160207820B1C7
:103EB000012805D0022805D102E000F08FF801E0CA
:103EC00000F018F9D4ED0E0A94ED100A244800F021
:103ED000F1F9D4ED0F0A94ED110A224800F0EAF945
:103EE0001F48D0ED0B0A1F48C4ED120A90ED0B0AD3
:103EF0001D4884ED130A94ED040A84ED140A94ED30
:103F0000051A84ED151A00F0D5F9D4ED130A94EDD5
:103F1000150A164800F0CEF9134890ED0B0A144824
:103F2000BDEEC00A10EE101A0181104991ED0B0A86
:103F3000BDEEC00A10EE101A4181002181810D48AA
:103F40000821006800F0FCF80B4840210068BDE83B
:103F5000104000F0F5B80000C8000020E447002041
:103F600004070020480700208C070020D00700200D
:103F7000D047002008000020100000200A8852BA14
:103F800013B2C3804A8800EE103A52BA12B2F8EE69
:103F9000C00A02819FED0D0A898849BA60EE800A45
:103FA00009B24181C0ED0B0A00EE902AF8EEE00A5A
:103FB00060EE800AC0ED0C0A00EE901AF8EEE00AFE
:103FC00020EE800A80ED0D0A7047000029AE6A3DA0
:103FD000EFF30580002800D0012070470B480D4901
:103FE00090ED010A80ED110A90ED020A80ED100AB1
:103FF0009FED070A80ED0F0A80ED0E0A0968B1F502
:10400000FA6F01D90121017070470000E4470020D8
:1040100000000000C8000020FDF774FD40F2DC50F5
:10402000FDF778FCFEF7CEFBFEF7C0FAFEF730FA9C
:10403000FEF7F2FAFEF70CFBFEF7B8F9FEF7F0F91F
:10404000FCF756FCFCF750FEFEF760FBFEF746FA65
:1040500000F065F8FEE701460020842900D0C81C66
:104060007047000008B540F2DC5000F04FF81A48E5
:104070000421006800F0F0F818480121006800F001
:10408000EBF817480121006800F0E6F800F04CF862
:10409000144C154D154E164F4FF400784FF480799F
:1040A0000090E068401CE06000F0CEFFFFF78EFE5D
:1040B00000F0EAFF4146286800F042F80821306825
:1040C00000F03EF84946386800F03AF805216846A5
:1040D00000F023F8E5E70000180000201C00002095
:1040E00020000020B800002004000020080000206C
:1040F0000C000020044890ED010A80ED110A90EDBB
:10410000020A80ED100A7047E447002010B500B99C
:10411000012001F06BF8002010BD8120704710B520
:1041200001F018F9002010BD10B5FFF751FF18B1CC
:10413000BDE8104001F082BDBDE8104001F078BD3F
:10414000FEB5064600200D4602900190FFF740FFA5
:104150004FF0004498B102A8009001AB012229461B
:10416000304601F0DFFC012811D1029888B10A49DC
:10417000E0080860BFF34F8FBFF36F8F09E001AB1A
:1041800001222946304601F067FC012801D0204673
:10419000FEBD0198FEBD000004ED00E0FEB5002567
:1041A00006460F462C460195501C06D002B1144617
:1041B000FFF70EFF20B1822015E04FF0FF34F7E744
:1041C00023463946002001AA01F0A4FD012804D0AD
:1041D0000CB1402007E0009506E00198002801DAC4
:1041E000862000E0082000909DE8070086E8070090
:1041F000FEBD10B501F00EFD012803D0BDE8104052
:1042000001F086B910BD3EB504460D46B0F9080070
:10421000FFF721FF02A9CDE90001208A2B4682B2D7
:10422000D4E9001001F0ECFB012801D000203EBDD4
:1042300002983EBD08B500680090012907D0002013
:1042400013460246012103A001F092FE08BD0120A1
:10425000F6E70000000000002DE9FC4100250746BC
:104260002E4601950C0000D10124FFF7B1FE009607
:1042700090B101AB22460921384601F0C7FE012862
:1042800012D1019888B10A494FF080500860BFF3FD
:104290004F8FBFF36F8F08E000232246042138467A
:1042A00001F0B4FE012800D0FF252846BDE8FC81BE
:1042B00004ED00E000B580ED040A30EEC00A0146CE
:1042C000C0ED030A80ED070A006BD1ED060A01F18B
:1042D0002C02032802D0042827D053E091ED001AC5
:1042E00001F1240021EE001A81ED081A91ED091A5E
:1042F000D1ED011A01EE801A30EE600A81ED091A43
:10430000D1ED020A20EE200A81ED0A0A91ED0E0A93
:10431000B8EE400AFFF702FA91ED080AD1ED090A5A
:1043200030EE200AD1ED0A0A21E030EE601AD1ED1C
:10433000001AB0EE002A21EE211A81ED081AD1ED03
:10434000011A61EE801A00EEC20AC1ED091AD1ED20
:10435000050A30EE200AD1ED020A20EE200A71EEA5
:10436000210A81ED0A0A30EE800AD1ED0B0A1046CF
:1043700030EE200A81ED0B0A91ED0D0AB8EE400AED
:10438000FFF7CCF991ED060A81ED050A91ED070AD8
:1043900081ED060A91ED0B0A00BD00F1300C8CE8AE
:1043A0000E0080EC030A704780EC030A9FED050ABB
:1043B00080ED080A80ED090A80ED0A0A80ED0B0AFB
:1043C00070470000000000002DE9F041184C0F4636
:1043D0000546E6682068001D00F0F2FD38B9206847
:1043E00090F82C1001208840216981432161681CCC
:1043F00007D137B12168BDE8F0410E48091D00F032
:1044000017BE20683544B5424560216805D2A06BCF
:10441000BDE8F041091D00F0F3BD606B091D00F01F
:10442000EFFDA06A854200D2A562BDE8F0810000E0
:1044300044000020940B00202DE9F041054600F0D7
:1044400003FE2E4CA068401CA06020682C4F10B1C9
:10445000606940B32DE02560A068012829D10026BD
:1044600006EB860007EB800000F0BCFD761C072EF3
:10447000F6D323488C3000F0B5FD2148A03000F081
:10448000B1FD1F48B43000F0ADFD1D48C83000F04C
:10449000A9FD1B48DC3000F0A5FD19488C30606395
:1044A0001430A06305E02068E96AC06A884200D839
:1044B0002560606A401C6062E96A012022698840C8
:1044C0001043206101EB810007EB8000291D00F003
:1044D000AFFD00F0D9FD606900280CD02068E96AC2
:1044E000C06A884207D207494FF080500860BFF386
:1044F0004F8FBFF36F8FBDE8F081000044000020B4
:10450000B80A002004ED00E010B500F09DFD0E4C4F
:104510002068A0B90D4800F065FD0C48143000F08B
:1045200061FD0A48E0601430206100220C210A205D
:1045300001F004F8206010B105A100F021FEBDE8F3
:10454000104000F0A1BD000080000020A80B00205A
:10455000546D72510000000070B5114E114C17E0FF
:1045600000F030FF3068B8B101F0A0FC00F06CFD45
:10457000F068C568281D00F023FDA068401EA060FB
:104580006068401E606000F07FFD284600F055F82E
:1045900060680028E4D170BD01F088FCF8E70000F5
:1045A000800B00204400002030B4026C0B46002A2F
:1045B0000BD0C1681144C1604468A14201D30168B5
:1045C000C16030BC1846FBF78ABE30BC70472DE98D
:1045D000F041856B174604460026026C82B1C7B1D4
:1045E000E068FBF77CFEE168206C091AE160226854
:1045F000914202D26168081AE060022F16D017E0DB
:104600002068A8B9606801F0CBFB06460020606016
:104610000EE0A068FBF763FE216CA0680844A06070
:104620006168884204D32068A06001E005B16D1E76
:104630006D1CA5633046BDE8F08110B50446006BE3
:1046400000F036FD2046BDE8104000F031BD00000E
:1046500010484FF47051420706D0C01D0D4920F09C
:104660000700411AC1F570510B4A00230144C2E909
:1046700000030839103A21F0070111604B600B600C
:104680000B1AC0E9001393604FF000405360D060F4
:1046900070470000D00B0020A4000020074C4FF012
:1046A0008056074DFFF758FF20680128FAD92E6081
:1046B000BFF34F8FBFF36F8FF4E70000B80A0020FD
:1046C00004ED00E02DE9F0479A46DDE909848146D2
:1046D0006FF00303206B03EB82021044089D20F06F
:1046E0000706700707D0502080F31188BFF34F8F63
:1046F000BFF36F8FFEE723180A5C83F834200A5C4F
:1047000012B1401C1028F6D3002784F84370072DFF
:1047100000D30625E562C4E91157201D00F06DFCA9
:1047200004F1180000F069FC2461C5F1070064621F
:10473000A061E76484F8507052464946304600F064
:104740003DFA2060B8F1000F01D0C8F80040BDE884
:10475000F087000030B5114900E011460A68824236
:10476000FBD34B685C18844203D14068184448600E
:10477000084643681C18944209D1084C103C246830
:10478000A24209D052681A4442600A681268026064
:10479000814200D0086030BD0460F9E7A400002029
:1047A00070B5002441600B4D0061914206D8D11ACA
:1047B0008269914206D2011D286907E09A4203D21C
:1047C000994201D3012403E0011DE86800F018FCC0
:1047D000204670BD8000002010B5044600F034FC77
:1047E000A06B28B15FF0000400F04EFC204610BD25
:1047F0000124F9E730B587B02B4D4BE00498002831
:1048000048DB069C606910B1201D00F0D9FB02A8AE
:1048100000F0B6F8024604980A283BD2DFE800F020
:104820000505053A263705053A260598A169034688
:1048300001442046FFF7B4FF00B3616A2046884771
:10484000E069012826D1002000900598A169002385
:1048500042181946204601F0D9FB78B9502080F360
:104860001188BFF34F8FBFF36F8FFEE70598A061EC
:1048700028B1811813462046FFF792FF0AE0502026
:1048800080F31188BFF34F8FBFF36F8FFEE7204691
:1048900000F00EFC00231A4604A9286800F072FEFE
:1048A0000028ABD107B030BD800000202DE9FC41CD
:1048B0000F46054600F086FD01A800F061F80446A9
:1048C000019818B101F0F2FABDE8FC81224EAFB1B7
:1048D00030690068A8B30027291B3A46306800F009
:1048E00063FC01F0E3FA0028EED11C494FF0805040
:1048F0000860BFF34F8FBFF36F8FE5E7A542EBD89A
:1049000001F0D4FAF0682746C068C468201D00F0A2
:1049100057FBE069012810D1A0692B4641193A469E
:104920002046FFF73DFF40B10020034601460090BE
:104930002A46204601F06AFB20B1616A204688477A
:10494000C2E707E0502080F31188BFF34F8FBFF319
:104950006F8FFEE70127BFE78000002004ED00E035
:104960000648416B096829B1416BC968C968496843
:10497000816270474FF0FF31FAE7000044000020E9
:1049800070B5054601F054F9064E0446B0688442FD
:1049900003D200F009F8012000E000202860204642
:1049A000B46070BD80000020F8B5194D1FE0C068EC
:1049B000C4680668201D00F003FB616A2046884732
:1049C000E069012813D1A0693044B04206D92461BE
:1049D0006060211DE86800F013FB08E0002003463A
:1049E000014600903246204601F010FB38B1E868DD
:1049F00001680029DBD12969C5E90310F8BD502001
:104A000080F31188BFF34F8FBFF36F8FFEE7000075
:104A10008000002008484068401C4FF0500080F3A0
:104A2000118804D0BFF34F8FBFF36F8FFEE7BFF342
:104A30004F8FBFF36F8FFEE7AC000020074CE0689C
:104A4000016841B1C0680021D0F80000FFF72EFFD7
:104A5000FFF7D0FEF3E701210020F7E780000020F8
:104A60002DE9F041044600F0EFFA94F9455004F1C5
:104A7000240609E0606A48B1304601F0DDF908B16A
:104A800000F0DAFB6D1E6DB2002DF3DC4FF0FF3647
:104A900084F8456000F0F8FA00F0D6FA94F9445032
:104AA00004F1100709E0206948B1384601F0C4F963
:104AB00008B100F0C1FB6D1E6DB2002DF3DC84F86F
:104AC0004460BDE8F04100F0DFBA00002DE9F0419C
:104AD0000546002700F076FC314E306808B9FFF734
:104AE000B7FDF06805424BD1C5B3083568070ED055
:104AF00005F00700C0F108000544680707D0502002
:104B000080F31188BFF34F8FBFF36F8FFEE72DB394
:104B10007068854234D82248103001460C6801E0A4
:104B200020460C466168A94202D221680029F7D1CB
:104B300031688C4224D007682168016060680837BA
:104B4000411B10290FD96019420708D0502080F36B
:104B50001188BFF34F8FBFF36F8FFEE710E0416006
:104B60006560FFF7F7FD61687068401A7060B268B1
:104B7000904200D2B060F06801430020C4E9000117
:104B800001F094F9780707D0502080F31188BFF323
:104B90004F8FBFF36F8FFEE73846BDE8F08100000E
:104BA000940000200449086818B10868826C521CFF
:104BB00082640868704700004400002010B5031F9D
:104BC0004FF080741C601B1F21F001011960191F38
:104BD000044B0B6014390A60091F6FF0020244385D
:104BE0000A6010BD154A00084168002902DC9FEDEB
:104BF0000B0A70470268531C03608A4200DB0160A5
:104C000090ED000AF8EEC00A00EE101AB8EEC01AD5
:104C100080EE810A80ED020A70470000000000006B
:104C20000022C0E90021704770B527482DED048BA4
:104C3000007800282CD025480078012828D1244865
:104C40002449254D0278B1F90200B1F90040012A4A
:104C500021D0FBF7F0FC9FED218B53EC182BFBF7D9
:104C600009FC9FED209B53EC192BFBF775FCFBF720
:104C700006FDE8602046FBF7DEFC53EC182BFBF743
:104C8000F9FB53EC192BFBF767FCFBF7F8FC2861E9
:104C9000BDEC048B70BD00EE100AB3EE0E1ADFED12
:104CA000130AB8EEC00A20EE010AC0EE201A00EE88
:104CB000104AB8EEC00A20EE010A80EE201AC5EDB7
:104CC000031A85ED041AE3E7E4470020B80000204A
:104CD000B9000020400500204C48002000000000E2
:104CE00000004E400000000000A084400000254469
:104CF00012480178002920D01149097801291CD1D6
:104D0000104990ED0E0A9FED101AB1F9042000EE43
:104D1000902AF8EEE00A00EEC10A9FED0C1A80ED31
:104D20000E0AB1F9061090ED0F0A00EE901AF8EE97
:104D3000E00A00EEC10A80ED0F0A7047E447002048
:104D4000B8000020400500206F12833A17B7D13811
:104D500005480078012805D104480549027A4A72BD
:104D6000407A087070470000B8000020400500201D
:104D7000E04800207CB5124C0025E560A5604FF4AA
:104D80000075256008252561040A8DF800408DF81E
:104D90000100080A8DF80200100A8DF804008DF851
:104DA0000520180A8DF803108DF8060004498DF8C7
:104DB000073001236A46A1F15000FCF70BF87CBDD7
:104DC0004C010020B0F90630B0F90420B0F902100F
:104DD000B0F90000FFF7CEBF7CB5124C002340F2C3
:104DE000FF15E3602560A36008252561040A8DF89E
:104DF00000408DF80100080A8DF80200100A8DF8B5
:104E000004008DF805208DF803108DF80630054953
:104E10008DF8073001236A46A1F15000FBF7DAFF55
:104E20007CBD00004C010020B0F90420B0F9021054
:104E30000088404200B2FFF7CFBF00007CB5124BA4
:104E40004FF4007408251C6000249C60C3E90345EE
:104E5000030A8DF800308DF80100080A8DF8020071
:104E6000100A8DF804008DF803108DF8052006490E
:104E70008DF806408DF8074001236A46A1F15C00D9
:104E8000FBF7A8FF7CBD000080010020B0F90420E2
:104E9000B0F90210B0F90000FFF7D0BF0F48417A17
:104EA000012908D00021C0F83A104162C0F817105B
:104EB000C0F813107047D0F83A10094A491CC0F8DE
:104EC0003A108262074AC0F81720C0F81320B1F5E3
:104ED0007A7FEFD96FF0050141627047E04800200A
:104EE000385B01000000704170B52C480078002844
:104EF00052D02B4C2078012801D1FFF7CFFFB4F816
:104F00000300A16A884201DD0020606254F8130F9B
:104F1000DFED240A00EE100AA06860EE200A00EE21
:104F2000100A2148FEF734FCBDEEC00A1F4DDFED2C
:104F3000200A10EE100AE881606800EE100AE068AE
:104F400060EE200A00EE100A17484430FEF720FCFD
:104F5000BDEEC00A10EE100A2882D4F8110000EE4F
:104F6000100AD4F81D00F8EEC00A00EE100A11482D
:104F7000FEF70EFCBDEEC00A4FF4807110EE100A71
:104F800068820D480068FFF7DBF80C4810210068C4
:104F9000BDE87040FFF7D4B870BD0000E4470020C2
:104FA000E0480020EA91E4C168090020D0470020D1
:104FB000EA91E441340A00200C0000201000002097
:104FC000D0E9013201699A60D0E901235A604A6848
:104FD000824201D182684A60002202610868401E54
:104FE0000860704700F108014FF0FF32C0E901127C
:104FF000C1600161002101607047002101617047BB
:1050000030B50B685A1C02D000F1080202E00269B8
:1050100004E02246546825689D42FAD953684B60E3
:1050200099608A60516008610168491C016030BD67
:1050300042684A6093688B60936859609160086128
:105040000168491C01607047502080F31188BFF34C
:105050004F8FBFF36F8F0A494868401C4860012892
:105060000CD10848006810F0FF0F07D0502080F3E3
:105070001188BFF34F8FBFF36F8FFEE770470000BB
:10508000AC00002004ED00E00849486828B1401E4B
:10509000486001D180F311887047502080F3118857
:1050A000BFF34F8FBFF36F8FFEE70000AC0000200F
:1050B00070B5002827D0144DA0F108046168E86895
:1050C000014207D1502080F31188BFF34F8FBFF307
:1050D0006F8FFEE722683AB1502080F31188BFF34A
:1050E0004F8FBFF36F8FFEE78143616000F06AF975
:1050F00060686968084468602046FFF72BFBBDE8DC
:10510000704000F0D3BE70BD9400002006484FF4FC
:105110007A710068B0FBF1F14FF0E020491E416167
:1051200007210161704700004000002010B5FBF727
:105130008FF8114910280ED300F1E02090F8F00309
:105140000A78904207D2502080F31188BFF34F8F26
:10515000BFF36F8FFEE709480068896800F4E060DC
:10516000884207D9502080F31188BFF34F8FBFF3D7
:105170006F8FFEE710BD0000AC0000200CED00E0DA
:1051800010B5084B002200BF53F832401CB1521C2E
:10519000082AF9D310BD43F8321003EBC20148606E
:1051A00010BD0000780A002070B515460E46044672
:1051B000FFF74AFF94F944100020491C01D184F8FC
:1051C000440094F94510491C01D184F84500FFF7CB
:1051D0005BFFA06B28B92A46314604F1240000F099
:1051E00049F82046BDE87040FFF73ABC10B5020010
:1051F00014D00F48006B38B1502080F31188BFF3F2
:105200004F8FBFF36F8FFEE700F0DCF800211046F0
:10521000FFF7DAF800F04AFE002807D105494FF001
:1052200080500860BFF34F8FBFF36F8F10BD000039
:105230004400002004ED00E001490120C8617047EE
:105240004400002010B50C4650B1094909681831D6
:10525000FFF7D6FE2046BDE810400121FFF7B4B8A5
:10526000502080F31188BFF34F8FBFF36F8FFEE79D
:105270004400002070B514460D4668B10A4909681B
:105280001831FFF7D5FE0CB14FF0FF352146284607
:10529000BDE87040FFF798B8502080F31188BFF345
:1052A0004F8FBFF36F8FFEE74400002070B50400FE
:1052B00039D01D4DE06A2968C96A884233D2A06995
:1052C000002804DB2868C06AC0F10700A061E16A19
:1052D000164E01EB8101606906EB810188421FD106
:1052E000201DFFF76DFE012150B9E06A00EB80023E
:1052F00056F8222022B92A6901FA00F082432A6175
:105300002868C06AE0622A6981401143296100EB84
:10531000800006EB8000211DBDE87040FFF788BECD
:105320002868C06AE06270BD44000020B80A00200E
:1053300028B107490A6A0260C96841607047502075
:1053400080F31188BFF34F8FBFF36F8FFEE700002C
:10535000440000201CB517480024CDE90040234636
:10536000802215A1164800F04BFB012803D100F064
:1053700027FE012809D0401C1AD1502080F3118843
:10538000BFF34F8FBFF36F8FFEE7502080F311887C
:10539000BFF34F8FBFF36F8F06484FF0FF312C38AC
:1053A000816201214161C460BDE81C4000F040B849
:1053B0001CBD00007000002049444C450000000066
:1053C0009D4600080248016B491C016370470000BC
:1053D000440000201448016B11B10121C1617047E4
:1053E0000021C1610169B1FA81F1C1F11F0101EB35
:1053F00081020E4951F822306BB101EB820101F1BB
:1054000008034A6852684A609A4201D152684A6069
:10541000D16801607047502080F31188BFF34F8F2F
:10542000BFF36F8FFEE7000044000020B80A0020A1
:105430001CB532480168324A914207D1502080F3AE
:105440001188BFF34F8FBFF36F8FFEE700682C49C1
:10545000491E884207D1502080F31188BFF34F8F37
:10546000BFF36F8FFEE7274908780190FF2008708F
:1054700008788DF800009DF800009DF8002000F0ED
:10548000F000904207D0502080F31188BFF34F8F77
:10549000BFF36F8FFEE79DF800001B4A00F050003D
:1054A00010700720906005E09DF800305B008DF8DB
:1054B0000030401E9DF800301B06F5D4000200F4B9
:1054C000E0609060019808700C482030016841F459
:1054D00070010160016841F070410160FFF716FE44
:1054E00000205060FAF77AFE0848016841F0404118
:1054F0000160FAF763FE00201CBD000000ED00E033
:1055000071C20F4100E400E0AC00002034EF00E085
:1055100010B5502080F31188BFF34F8FBFF36F8F0A
:1055200000F094FB18B104494FF08050086000204F
:1055300080F3118810BD000004ED00E070B50E4648
:10554000050013D0D6B105FB06F04830FFF7BEFAD0
:10555000040009D004F1480120468EB10160C0E981
:105560000F56012100F0C4F8204670BD502080F392
:105570001188BFF34F8FBFF36F8FFEE70020E4E782
:105580000060ECE72DE9FF4F002683B09B468A467A
:10559000040003D0BAF1000F08D011E0502080F3CE
:1055A0001188BFF34F8FBFF36F8FFEE7206C38B1C8
:1055B000502080F31188BFF34F8FBFF36F8FFEE74A
:1055C00000F028FBDFF824814FF000094FF08057EE
:1055D00048B9059838B1502080F31188BFF34F8F38
:1055E000BFF36F8FFEE7FFF72FFDA56B45B3514665
:1055F0002046E668FEF7D8FFBBF1000F13D0E66047
:10560000606A50B104F1240000F016FC28B1C8F81B
:105610000070BFF34F8FBFF36F8FFFF735FD012091
:1056200007B0BDE8F08F6D1EA563206810B9FFF7C5
:10563000B9FA606020690028EFD004F11000E3E7B8
:10564000059808B11EB106E0FFF71EFD27E0684689
:10565000FFF76EFE0126FFF717FDFFF7B3FEFFF71A
:10566000F3FC94F94400401C01D184F8449094F96F
:105670004500401C01D184F84590FFF705FD05A9C0
:10568000684600F087F9002820460AD0FFF7E8F9BD
:1056900000F00CFC2046FFF79FF80028A3D0002064
:1056A000BEE7FFF799F8D8B1206830B9FFF7CCFC16
:1056B0006068FFF7FBFDFFF7E7FC04F124000599A4
:1056C000FFF7C0FD2046FFF7CBF900F0EFFB002805
:1056D00089D1C8F80070BFF34F8FBFF36F8F82E797
:1056E0002046FFF7BDF900F0E1FB7CE704ED00E0A8
:1056F00070B50D46040025D0FFF7A6FCD4E90F20B5
:10570000216802FB001161600021A1632168A16092
:105710000A46D4E90F01401E00FB0121E160214649
:105720004FF0FF3001F8440F487004F110008DB1C4
:10573000FFF758FC04F12400FFF754FCFFF7A4FC2A
:10574000012070BD502080F31188BFF34F8FBFF34D
:105750006F8FFEE721690029F0D000F06DFB002873
:10576000ECD004494FF080500860BFF34F8FBFF377
:105770006F8FE3E704ED00E02DE9FF4782B01D469F
:105780008A464FF00008040003D0BAF1000F08D099
:1057900011E0502080F31188BFF34F8FBFF36F8F5C
:1057A000FEE7206C38B1502080F31188BFF34F8F93
:1057B000BFF36F8FFEE7022D0AD1E06B012807D0FF
:1057C000502080F31188BFF34F8FBFF36F8FFEE738
:1057D00000F020FA3F4F4FF000094FF0805648B9D3
:1057E000049838B1502080F31188BFF34F8FBFF376
:1057F0006F8FFEE7FFF728FCA06BE16B884207D3B1
:10580000022D05D00498D0B1B8F1000F1AD01EE0D7
:105810002A4651462046FEF7DAFE616A19B104F1C4
:10582000240000F009FB20B13E60BFF34F8FBFF3AF
:105830006F8FFFF729FC012006B0BDE8F087FFF766
:1058400023FC22E06846FFF773FD4FF00108FFF7E5
:105850001BFCFFF7B7FDFFF7F7FB94F94400401C72
:1058600001D184F8449094F94500401C01D184F89A
:105870004590FFF709FC04A9684600F08BF830B1A9
:105880002046FFF7EDF800F011FB0020D4E7FFF70A
:10589000DBFBA06BE16B884213D1FFF7F5FB04F152
:1058A00010000499FFF7CEFC2046FFF7D9F800F06E
:1058B000FDFA00289ED13E60BFF34F8FBFF36F8F7C
:1058C00098E7FFF7E1FB2046FFF7CAF800F0EEFA91
:1058D00090E7000004ED00E02DE9F0471F469046F8
:1058E0008946040003D0B9F1000F08D011E0502020
:1058F00080F31188BFF34F8FBFF36F8FFEE7206CEB
:1059000038B1502080F31188BFF34F8FBFF36F8FF2
:10591000FEE7022F0AD1E06B012807D0502080F368
:105920001188BFF34F8FBFF36F8FFEE7FFF7FEFBCA
:105930005020EFF3118680F31188BFF34F8FBFF330
:105940006F8FA06BE16B884206D3022F04D000203A
:1059500086F31188BDE8F08794F945503A464946E8
:105960002046FEF734FE681C04D06D1C84F84550B8
:105970000120EDE7606A0028FAD004F1240000F06D
:105980005BFA0028F4D0B8F1000FF1D00121C8F87B
:105990000010EDE770B50D46040019D005B3FFF710
:1059A00053FB164AD1682868431C0FD02368126A3B
:1059B000934202D062688A421AD96268891A814287
:1059C00016D2401A28602046FFF7B2FC002410E0EF
:1059D000502080F31188BFF34F8FBFF36F8FFEE726
:1059E000502080F31188BFF34F8FBFF36F8FFEE716
:1059F0000124FFF749FB204670BD00004400002051
:105A00002DE9FF5F8346DDE90E87994616468A46F3
:105A10009000FFF75BF805001AD05420FFF756F806
:105A2000040012D025630021CDE90241CDE90087B1
:105A30004B46324651465846FEF744FE2046FEF796
:105A4000FBFC012004B0BDE8F09F2846FFF730FBC7
:105A50004FF0FF30F6E700002DE9F0411F46904679
:105A60000D46012690B10446FFF7EEFA0FB1E06C47
:105A7000386094F85000022184F85010B8F1050FF6
:105A800016D2DFE808F0150B0E141200502080F338
:105A90001188BFF34F8FBFF36F8FFEE7E16C29438F
:105AA00001E0E16C491CE16402E0022803D0E564F6
:105AB000012802D02AE0002628E0201DFFF780FA06
:105AC000154DE06A01212A6981401143296113497A
:105AD00000EB800001EB8000211DFFF7A9FAA06A0E
